{
  "contractName": "Helloworld",
  "abi": [
    {
      "constant": true,
      "inputs": [],
      "name": "myPhrase",
      "outputs": [
        {
          "name": "",
          "type": "bytes32"
        }
      ],
      "payable": false,
      "stateMutability": "view",
      "type": "function"
    },
    {
      "inputs": [],
      "payable": false,
      "stateMutability": "nonpayable",
      "type": "constructor"
    },
    {
      "constant": false,
      "inputs": [
        {
          "name": "_newPhrase",
          "type": "bytes32"
        }
      ],
      "name": "setPhrase",
      "outputs": [],
      "payable": false,
      "stateMutability": "nonpayable",
      "type": "function"
    }
  ],
  "bytecode": "0x608060405234801561001057600080fd5b507f48656c6c6f20576f726c640000000000000000000000000000000000000000006000816000191690555060ec8061004a6000396000f3006080604052600436106049576000357c0100000000000000000000000000000000000000000000000000000000900463ffffffff16806366ac8e6114604e57806379fdd9c714607c575b600080fd5b348015605957600080fd5b50607a600480360381019080803560001916906020019092919050505060ac565b005b348015608757600080fd5b50608e60ba565b60405180826000191660001916815260200191505060405180910390f35b806000816000191690555050565b600054815600a165627a7a72305820496329b1a7ec9300bbac3d5e91109fddfc8f5f284b79bfd1c07570cd6fe8c8920029",
  "source": "pragma solidity ^0.4.23;\ncontract Helloworld {\n\tbytes32 public myPhrase;\n\tconstructor() {\n\t\tmyPhrase = 'Hello World';\n\t}\n\tfunction setPhrase( bytes32 _newPhrase ) public {\n\t\tmyPhrase = _newPhrase;\n\t} \n}",
  "sourcePath": "/Users/bit1/BrandonDev/IntroBitcoin/HelloWorldSmartContract/contracts/Helloworld.sol",
  "compiler": {
    "name": "solc",
    "version": "0.4.24+commit.e67f0147.Emscripten.clang"
  },
  "schemaVersion": "2.0.0",
  "updatedAt": "2018-07-10T19:43:23.110Z"
}